:060000000A128A11122809
:10000800FE00030EF0000408F1000A08F200831253
:1000180003137F08F3000A168A15872F0A128A111C
:10002800CF2F83120313091583160317A201A30107
:100038002308803AFF0087307F02031D2528D0302F
:100048002202031C282829282D280A128A15522A38
:1000580029280A168A152C260A128A1101308316B5
:100068000317A2070318A30A0030A3072308803A3E
:10007800FF0087307F02031D4328D0302202031C73
:10008800462847282D28292829282928D0018312DD
:100098000313A4010B300A168A1152210A128A117D
:1000A800BD300A168A11C5200A128A110A168A1149
:1000B80019210A128A11003A031963286428B02802
:1000C8000A168A1140240A128A11F51B6C286D2819
:1000D800B0280A168A1140240A128A117508803A33
:1000E800FF0080307F02031D7B280A30740203184A
:1000F8007E287F28B028013083120313D7005708C1
:1001080083160313D2070A168A1140240A128A1189
:10011800740883120313D700831603135608C03ECE
:100128008400831203135708831380000130D7001B
:10013800570883160313D6070A168A11DD240A12F4
:100148008A110A168A11DD240A128A1183120313EE
:100158002408D7005708DD0083120313A4010C30CC
:100168000A168A1152210A128A11831203135D0892
:10017800D700D8015708AC005808AD00BA300A12A9
:100188008A150D200A128A110A168A15CD250A1217
:100198008A11003A0319D128D228E02883160313BC
:1001A800D201D601CB01663083120313D70057085A
:1001B80083160313E300E0280A168A15EF250A12AE
:1001C8008A11003A0319E928EA2829288312031317
:1001D800A4010C300A168A1152210A128A11AA3077
:1001E8000A168A11C5200A128A1183120313DD0127
:1001F80083160313D201D601CB012928292883129B
:100208000313A4010B300A168A1152210A128A110B
:10021800AE300A168A11C5200A128A1183120313F6
:10022800A4010314A40D0B300A168A1152210A12D4
:100238008A11BD300A168A11C5200A128A110A16B7
:100248008A1119210A128A11003A03192C292D2919
:100258007B290A168A1140240A128A11F51B3529AE
:1002680036297B290A168A1140240A128A11750830
:10027800803AFF0080307F02031D44290A3074024F
:100288000318472948297B29013083120313D70013
:10029800570883160313D2070A168A1140240A1234
:1002A8008A11740883120313D700831603135608A0
:1002B800C03E840083120313570883138000013063
:1002C800D700570883160313D6070A168A11DD24A8
:1002D8000A128A110A168A11DD240A128A11831257
:1002E80003132508F701F7072408F601F607831218
:1002F8000313A4010314A40D0C300A168A11522109
:100308000A128A11770883120313AD01AD07760824
:10031800AC01AC07BA300A128A150D200A128A11EC
:100328000A168A15CD250A128A11003A03199D2941
:100338009E29AC2983160313D201D601CB0168305C
:1003480083120313D700570883160313E300AC295D
:100358000A168A156C270A128A11003A0319B52958
:10036800B629EF29023083120313D9000430D800CC
:10037800BA30D700D70BBE29D80BBE29D90BBE2956
:1003880064000A168A156C270A128A11003A0319A2
:10039800CE29CF29EF2983160313D201D601CB0129
:1003A80083120313A4010314A40D0B300A168A1137
:1003B80052210A128A11AE300A168A11C5200A1271
:1003C8008A11673083120313D70057088316031363
:1003D800E300EF29EF290A168A15EF250A128A1178
:1003E800003A0319F829F929292883120313A401CB
:1003F8000314A40D0C300A168A1152210A128A110C
:10040800AC300A168A11C5200A128A118316031302
:10041800D201D601CB01F601F70129282928831238
:100428000313A4010314A40D0B300A168A115221D8
:100438000A128A11AE300A168A11C5200A128A11C8
:10044800023083120313D7005708A4000B300A1692
:100458008A1152210A128A11BD300A168A11C52042
:100468000A128A110A168A1119210A128A11003AE7
:1004780003193F2A402A8C2A0A168A1140240A1294
:100488008A11F51B482A492A8C2A0A168A114024FF
:100498000A128A117508803AFF0080307F02031D16
:1004A800572A0A30740203185A2A5B2A8C2A013008
:1004B80083120313D700570883160313D2070A16AB
:1004C8008A1140240A128A11740883120313D70070
:1004D800831603135608C03E84008312031357087B
:1004E800831380000130D700570883160313D607FB
:1004F8000A168A11DD240A128A110A168A11DD24C5
:100508000A128A11831203132408D7005708DB0044
:10051800023083120313D7005708A4000C300A16C0
:100528008A1152210A128A11831203135B08D70019
:10053800D8015708AC005808AD00BA300A128A151D
:100548000D200A128A110A168A15CD250A128A1157
:10055800003A0319B02AB12ABF2A83160313D2011D
:10056800D601CB01693083120313D70057088316CD
:100578000313E300BF2A0A168A156C270A128A1188
:10058800003A0319C82AC92A032B0230831203131D
:10059800D9000430D800BA30D700D70BD12AD80BED
:1005A800D12AD90BD12A64000A168A156C270A1297
:1005B8008A11003A0319E12AE22A032B831603134E
:1005C800D201D601CB01023083120313D70057089A
:1005D800A4000B300A168A1152210A128A11AE3071
:1005E8000A168A11C5200A128A116630831203136B
:1005F800D700570883160313E300032B032B0A16AF
:100608008A15EF250A128A11003A03190C2B0D2BB3
:100618002928023083120313D7005708A4000C308E
:100628000A168A1152210A128A11AC300A168A1146
:10063800C5200A128A1183160313D201D601CB01F1
:1006480083120313DB012928292802308312D700DB
:100658005708A4000B300A168A1152210A128A116F
:10066800AE300A168A11C5200A128A110330831285
:100678000313D7005708A4000B300A168A11522119
:100688000A128A11BD300A168A11C5200A128A1167
:100698000A168A1119210A128A11003A0319552BD0
:1006A800562BA22B0A168A1140240A128A11F51B0E
:1006B8005E2B5F2BA22B0A168A1140240A128A117C
:1006C8007508803AFF0080307F02031D6D2B0A30C9
:1006D80074020318702B712BA22B013083120313A1
:1006E800D700570883160313D2070A168A11402425
:1006F8000A128A11740883120313D700831603138E
:100708005608C03E840083120313570883138000E1
:100718000130D700570883160313D6070A168A1123
:10072800DD240A128A110A168A11DD240A128A1196
:10073800831203132408D7005708DA000330831202
:100748000313D7005708A4000C300A168A11522147
:100758000A128A11831203135A08D700D8015708BE
:10076800AC005808AD00BA300A128A150D200A12DA
:100778008A110A168A15CD250A128A11003A031918
:10078800C62BC72BDB2B0C300A168A11B9230A1289
:100798008A1183160313D201D601CB016A30831262
:1007A8000313D700570883160313E300DB2B0A163D
:1007B8008A156C270A128A11003A0319E42BE52BD3
:1007C8001F2C023083120313D9000430D800BA302A
:1007D800D700D70BED2BD80BED2BD90BED2B6400E5
:1007E8000A168A156C270A128A11003A0319FD2B7A
:1007F800FE2B1F2C83160313D201D601CB01033025
:1008080083120313D7005708A4000B300A168A1165
:1008180052210A128A11AE300A168A11C5200A120C
:100828008A11683083120313D700570883160313FD
:10083800E3001F2C1F2C0A168A15EF250A128A11AD
:10084800003A0319282C292C292803308312031372
:10085800D7005708A4000C300A168A1152210A1230
:100868008A11AC300A168A11C5200A128A11831619
:100878000313D201D601CB0183120313DA0129280D
:1008880029288312A40109300A168A1152210A1252
:100898008A11BD300A168A11C5200A128A110A1651
:1008A8008A1119210A128A11003A03195C2C5D2C4D
:1008B800AB2C0A168A1140240A128A11F51B652CE2
:1008C800662CAB2C0A168A1140240A128A11750864
:1008D800803AFF0080307F02031D742C0A307402B6
:1008E8000318772C782CAB2C013083120313D70014
:1008F800570883160313D2070A168A1140240A12CE
:100908008A11740883120313D70083160313560839
:10091800C03E8400831203135708831380000130FC
:10092800D700570883160313D6070A168A11DD2441
:100938000A128A110A168A11DD240A128A118312F0
:1009480003132408D700570883160313C90083121A
:100958000313A4010A300A168A1152210A128A11B5
:1009680083160313490883120313D700D8015708C5
:10097800AC005808AD00BA300A128A150D200A12C8
:100988008A1183120313A40100300A168A11522116
:100998000A128A1193300A168A11C5200A128A117E
:1009A80083120313A4010C300A168A1152210A1269
:1009B8008A11B0300A168A11C5200A128A110A163D
:1009C8008A15CD250A128A11003A0319EC2CED2C50
:1009D8001E2D0C300A168A11B9230A128A118312A5
:1009E8000313A4010314A40D00300A168A1152211E
:1009F8000A128A1158300A168A11C5200A128A1159
:100A08000A300A168A15AA270A128A110C300A1601
:100A18008A11B9230A128A1183160313D201D60147
:100A2800CB01653083120313D700570883160313CD
:100A3800E3001E2D0A168A156C270A128A11003A3D
:100A48000319272D282D0A2E0C300A168A11B923CE
:100A58000A128A1183120313A40100300A168A119C
:100A680052210A128A1181300A168A11C5200A12E7
:100A78008A1183120313A4010C300A168A11522119
:100A88000A128A11831203135D08D700D801570888
:100A9800AC005808AD00BA300A128A150D200A12A7
:100AA8008A1183120313A4010314A40D00300A163B
:100AB8008A1152210A128A1164300A168A11C52035
:100AC8000A128A1183120313A4010314A40D0F3010
:100AD8000A168A1152210A128A11B4300A168A118A
:100AE800C5200A128A1183120313A4010314A40D4A
:100AF8000C300A168A1152210A128A1177088312B9
:100B08000313AD01AD077608AC01AC07BA300A1281
:100B18008A150D200A128A11023083120313D70096
:100B28005708A40000300A168A1152210A128A11A5
:100B380040300A168A11C5200A128A11023083121F
:100B48000313D7005708A4000C300A168A11522143
:100B58000A128A11831203135B08D700D8015708B9
:100B6800AC005808AD00BA300A128A150D200A12D6
:100B78008A11033083120313D7005708A4000030EA
:100B88000A168A1152210A128A11A3300A168A11EA
:100B9800C5200A128A11033083120313D70057089D
:100BA800A4000F300A168A1152210A128A11B7308E
:100BB8000A168A11C5200A128A11033083120313F8
:100BC800D7005708A4000C300A168A1152210A12BD
:100BD8008A11831203135A08D700D8015708AC00AA
:100BE8005808AD00BA300A128A150D200A128A1167
:100BF80083160313D201D601CB0169308312031384
:100C0800D700570883160313E3000A2E0A168A151D
:100C1800EF250A128A11003A0319132E142E2928D7
:100C280083120313A4010C300A168A1152210A12E6
:100C38008A11AC300A168A11C5200A128A11831645
:100C48000313D201D601CB01C9012928292883120F
:100C58000313A40100300A168A1152210A128A11BC
:100C68000B300A168A11C5200A128A11831203133F
:100C7800A4010314A40D00300A168A1152210A1285
:100C88008A116F300A168A11C5200A128A11023099
:100C980083120313D7005708A40000300A168A11DC
:100CA80052210A128A1178300A168A11C5200A12AE
:100CB8008A110A168A151B270A128A11003A031983
:100CC800662E672E762E0C300A168A11B9230A1260
:100CD8008A116B3083120313D70057088316031346
:100CE800E300762E0A168A1551270A128A11003A4D
:100CF80003197F2E802E29280C300A168A11B92351
:100D08000A128A116C3083120313D700570883160E
:100D18000313E300292829288312031307138614D1
:100D28000915861F982E992EAE2E87160730D800E3
:100D38007D30D700D70B9E2ED80B9E2E831203131F
:100D480087120730D8007D30D700D70BA92ED80BD3
:100D5800A92EB72E83160313CD010314CD0DD3018D
:100D68000314D30DB72E831603134D08013A031D40
:100D7800BE2EBF2EE32E83120313061FC42EC52ECC
:100D8800DC2E89140430D800E430D700D70BCA2EE3
:100D9800D80BCA2E64008312031389100430D800BC
:100DA800E430D700D70BD62ED80BD62E6400E32E0E
:100DB80083160313D4010314D40DE32EE32E8316F4
:100DC80003135308013A031DEA2EEB2E2928540871
:100DD800013A031DF02EF12E292805300A168A152E
:100DE800AA270A128A1183120313071283160317FC
:100DF800A401A5012508803AFF0081307F02031D68
:100E0800072F90302402031C0A2F0B2F0D2F4E2F73
:100E18004E2F0A168A1545260A128A1183120313C1
:100E28005C08013A031D192F1A2F392F0713312F88
:100E380087160730D8007D30D700D70B212FD80B65
:100E4800212F8312031387120730D8007D30D70073
:100E5800D70B2C2FD80B2C2F312F83120313861B63
:100E6800362F372F1C2F86104E2F0130831603176D
:100E7800A4070318A50A0030A5072508803AFF0033
:100E880081307F02031D4A2F90302402031C4D2F0E
:100E98004E2F0D2F831203138615A40100300A1656
:100EA8008A1152210A128A114C300A168A11C52059
:100EB8000A128A1183120313A4010C300A168A112C
:100EC80052210A128A11831603134A08013E83121B
:100ED8000313AC00003003180130AD00BA300A1219
:100EE8008A150D200A128A1183120313DC08031DC8
:100EF8007E2F7F2F852F0A128A15D7230A128A116F
:100F0800852F83160313D301D401CD018312031354
:100F180086100C300A168A11B9230A128A11F801B0
:100F2800F90183160313C601C7018312031386113F
:100F380083160313D101653083120313D7005708B2
:100F480083160313E300292829282928292883162A
:100F580003136308653A0319CC2F033A03190329CD
:100F6800013A03194A280F3A0319132A013A0319B7
:100F7800292B033A0319452C013A0319902E063AF6
:100F880003192B2E2928292829280A128A11122800
:100F98000A128A15992AF601F701F801F901DA010E
:100FA800DB01DC01DD018313A0308400D9300A168F
:100FB8008A159A250A128A118317B630FD001D304A
:100FC800FE00AC30FF00A63084000A168A150426FD
:100FD8000A128A118313E430FD000830FE00023043
:100FE800FF00D93084000A168A1504260A128A11CD
:080FF80083010A128A15552A33
:10100400013402340434083410342034403480343D
:1010140064340034653483120313B3002C30AE00FF
:101024002E08B100E8283908253A03191A281B2884
:10103400222839080A168A15A2250A128A15E828D0
:10104400B2012928FE283E283E28E8283E280130FF
:10105400B307FF30330784000A168A1100200A12EE
:101064008A15B900003A0319FE28643A03193E2888
:101074000D3A03193E28E828310884008313000838
:10108400B500840A0008B6000230AE002E08B1078D
:10109400B61F4D284E2858280330AE002E08B2043F
:1010A400B509B609B50A0319B60A5828B9010314D3
:1010B400B90D3908053A031D6028612863288B2877
:1010C4008B283908AE002E07013E84000A168A11C7
:1010D40000200A128A15AF000A168A1100200A128B
:1010E4008A15B00030083602031D7A282F0835020D
:1010F40003187D287E2880288B288B280130AE0099
:101104002E08B9073908053A031D89288A28632857
:101114008B283208033903199028912898282D30F8
:101124000A168A15A2250A128A159828831203130F
:101134003908AE002E08B400DA280A30A7000030BF
:10114400A8003408AE002E07013E84000A168A1156
:1011540000200A128A15A0000A168A1100200A1219
:101164008A15A1003608A301A3073508A201A20726
:101174000A168A1120220A128A15831203132108DF
:10118400AA01AA072008A901A9070A168A1193210E
:101194000A128A15831203132708303EAF002F0862
:1011A400B90039080A168A15A2250A128A15DA28FE
:1011B400FF3083120313AE002E08B4073408FF3A3D
:1011C400031DE528E6289F28E828E8280130831233
:1011D4000313B307FF30330784000A168A11002073
:1011E4000A128A15AE002E08B900B908031DFB289F
:1011F400FC281528FE28FE28080083120313071371
:101204000A168A1513260A128A1508290A168A1537
:10121400AF260A128A15003A0319112912291B292B
:101224008312031307170A168A1513260A128A153E
:101234001B290A168A15CA260A128A15003A0319A6
:10124400242925292E298312031309110A168A1524
:101254002C260A128A152E290A168A15E5260A1240
:101264008A15003A031937293829412983120313AF
:1012740009150A168A152C260A128A1541290A16F6
:101284008A1500270A128A15003A03194A294B299C
:10129400A629C0308316031798005D309900900189
:1012A400910192019301831203135D08D700D801C1
:1012B4005708A0005808A100C030A2005D30A30068
:1012C4000A168A1143230A128A158312031321086A
:1012D40083160317990199078312031320088316B1
:1012E4000317980198079A019B019A298312031303
:1012F40087141A30D700D70B7D2964008312031397
:1013040087101A30D700D70B852964008312031382
:101314005C08013A031D8F2990299229A629A62940
:101324000130831603179A0703189B0A00309B07A2
:1013340019081B02031DA02918081A02031CA3295B
:10134400A4297829A629A6290A168A151B270A1270
:101354008A15003A0319AF29B0290B2AC030831625
:1013640003179C005D309D0094019501960197013F
:10137400831203135D08D700D8015708A00058084A
:10138400A100C030A2005D30A3000A168A114323D5
:101394000A128A15831203132108831603179D0169
:1013A4009D07831203132008831603179C019C07CF
:1013B4009E019F01FF298312031307151A30D700DA
:1013C400D70BE22964008312031307111A30D700E4
:1013D400D70BEA296400831203135C08013A031D46
:1013E400F429F529F7290B2A0B2A01308316031750
:1013F4009E0703189F0A00309F071D081F02031D44
:10140400052A1C081E02031C082A092ADD290B2AA6
:101414000B2A0A168A1536270A128A15003A031966
:10142400142A152A472A8312031309118316031752
:10143400A001A1012108803AFF0087307F02031D2B
:10144400252AD0302002031C282A292A2B2A472A9D
:10145400472A0A168A152C260A128A150130831681
:101464000317A0070318A10A0030A1072108803A36
:10147400FF0087307F02031D412AD0302002031C65
:10148400442A452A2B2A472A472A0A168A1551270D
:101494000A128A15003A0319522A0A128A111528C7
:1014A4000A128A15912A83160317880189010A16DC
:1014B4008A155E260A128A150A168A11E0260A126D
:1014C4008A15831603138113E130950001138B10E1
:1014D4000B168B1783120313A40100300A168A110A
:1014E40052210A128A152F300A168A11C5200A12AF
:1014F4008A150B3083120313D9002630D8006630C6
:10150400D700D70B832AD80B832AD90B832A8A2A9C
:101514000C300A168A11B9230A128A15912A0A165E
:101524008A117E250A128A150A128A11AB2F831298
:1015340003138717A40100300A168A1152210A12D4
:101544008A1581300A168A11C5200A128A15831257
:101554000313A4010C300A168A1152210A128A15A7
:10156400831203135D08D700D8015708AC0058084C
:10157400AD00BA300A128A150D200A128A15831298
:101584000313A4010314A40D00300A168A11522176
:101594000A128A1564300A168A11C5200A128A159D
:1015A40083120313A4010314A40D0F300A168A1125
:1015B40052210A128A15B4300A168A11C5200A1259
:1015C4008A1583120313A4010314A40D0C300A1604
:1015D4008A1152210A128A15770883120313AD0166
:1015E400AD077608AC01AC07BA300A128A150D2093
:1015F4000A128A15023083120313D7005708A40075
:1016040000300A168A1152210A128A1540300A162D
:101614008A11C5200A128A15023083120313D700D7
:101624005708A4000C300A168A1152210A128A158E
:10163400831203135B08D700D8015708AC0058087D
:10164400AD00BA300A128A150D200A128A15033029
:1016540083120313D7005708A40000300A168A1116
:1016640052210A128A15A3300A168A11C5200A12B9
:101674008A15033083120313D7005708A4000F30D0
:101684000A168A1152210A128A15B7300A168A11CB
:10169400C5200A128A15033083120313D700570892
:1016A400A4000C300A168A1152210A128A158312D8
:1016B40003135A08D700D8015708AC005808AD00E6
:1016C400BA300A128A150D200A128A150A168A15CA
:1016D400BC250A128A15003A0319712B722B872B29
:1016E400013083120313D700570883160313D0075E
:1016F40050187D2B7E2B822B831203138610852B8F
:10170400831203138614DC01872B0A168A15CD2550
:101714000A128A15003A0319902B912B9A2B6730E1
:1017240083120313D700570883160313E3009A2B7D
:101734000A168A15DE250A128A15003A0319A32B04
:10174400A42BBB2B0C300A168A11B9230A128A1552
:1017540083120313DC0183160313CB01C801CA01EE
:101764006D3083120313D700570883160313E30065
:10177400BB2B0A168A1579260A128A15003A031910
:10178400C42BC52BC92B831203138615C92B0A1628
:101794008A1594260A128A15003A0319D42B0A12C0
:1017A4008A15FF280A128A15082958308312031350
:1017B400D5000230D6002C30CF000130D0000717FE
:1017C40007160915BF01C001192C0A168A1513261C
:1017D4000A128A15831203135C08013A031DF32BC2
:1017E400F42B132C07130B2C87160730BB007D300A
:1017F400BA00BA0BFB2BBB0BFB2B83120313871210
:101804000730BB007D30BA00BA0B062CBB0B062C8C
:101814000B2C83120313861B102C112CF62B861011
:10182400272C0130BF070318C00A0030C007400846
:10183400803ABA005608803A3A02031D232C550810
:101844003F02031C262C272CE72B831203130716B5
:10185400D101D2015208803AFF0081307F02031D7A
:10186400352C90305102031C382C392C3B2CD62FAC
:10187400D62F0A168A1545260A128A1583120313CF
:101884005C08013A031D472C482C672C07135F2C76
:1018940087160730BB007D30BA00BA0B4F2CBB0B48
:1018A4004F2C8312031387120730BB007D30BA001C
:1018B400BA0B5A2CBB0B5A2C5F2C83120313861BB6
:1018C400642C652C4A2C8610D62F0130D1070318BE
:1018D400D20A0030D2075208803AFF0081307F02DA
:1018E400031D762C90305102031C792C7A2C3B2C4E
:1018F400D62FD62F83120313C101C201E42C831205
:101904000313A40100300A168A1152210A128A15FF
:101914004C300A168A11C5200A128A158312031341
:10192400A4010C300A168A1152210A128A15831650
:1019340003134A08013E83120313AC00003003185A
:101944000130AD00BA300A128A150D200A128A1528
:101954000A168A11D4220A128A150130831203133B
:10196400BA003A0883160313CA07831203135C08E8
:10197400013A031DBE2CBF2CDE2C0713D62C871670
:101984000730BB007D30BA00BA0BC62CBB0BC62C8B
:101994008312031387120730BB007D30BA00BA0BE1
:1019A400D12CBB0BD12CD62C83120313861BDB2C1E
:1019B400DC2CC12C8610F62C0130C1070318C20A96
:1019C4000030C2074208803ABA0080303A02031D50
:1019D400F12C831603134908831203134102031CD9
:1019E400F42CF52C812CF62C831203135C08013A99
:1019F400031DFD2CFE2C002DE02FE02F0C300A16C9
:101A04008A11B9230A128A1583160313CB01DF2D19
:101A140083120313A40100300A168A1152210A12F8
:101A24008A159B300A168A11C5200A128A15831258
:101A34000313A4010C300A168A1152210A128A15C2
:101A4400831603134B08013E83120313AC000030CA
:101A540003180130AD00BA300A128A150D200A129B
:101A64008A1583120313A4010314A40D00300A166B
:101A74008A1152210A128A158A300A168A11C5203F
:101A84000A128A1583120313A4010314A40D0C3043
:101A94000A168A1152210A128A158316031348085A
:101AA400013E83120313AC00003003180130AD0073
:101AB400BA300A128A150D200A128A1583120313EA
:101AC40007165A087807F80079080318790AF90004
:101AD400C301C401832D0A168A1545260A128A15E4
:101AE400831203135C08013A031D792D7A2D7C2D92
:101AF4009B2D9B2D0130C3070318C40A0030C40773
:101B0400832D5A08BA00BB010330FF000310BA0D3D
:101B1400BB0DFF0B882D4408803ABC003B08803A7B
:101B24003C02031D972D3A084302031C9A2D9B2D5A
:101B34006D2D8312031307170A168A1170220A12D5
:101B44008A1501300A168A15AA270A128A158312E1
:101B5400031307130A168A1170220A128A158312B4
:101B640003135C08013A031DB82DB92DD82D0713B2
:101B7400D02D87160730BB007D30BA00BA0BC02DBC
:101B8400BB0BC02D8312031387120730BB007D30BB
:101B9400BA00BA0BCB2DBB0BCB2DD02D8312031364
:101BA400861BD52DD62DBB2D8610EA2D0130BA000B
:101BB4003A0883160313CB07DF2D831203135B0844
:101BC400831603134B02031CE82DE92D0A2DEA2D7D
:101BD40083125C08013A031DF02DF12DF32DE02F43
:101BE400E02F09110712C501C6010E2E0A168A1527
:101BF40045260A128A15831203135C08013A031D51
:101C0400042E052E072E2F2E2F2E0130C507031864
:101C1400C60A0030C6070E2E7908BB007808BA0041
:101C24000330FF000310BA0DBB0DFF0B142E3A084E
:101C3400903EBC003B080318013E013EBD0046082F
:101C4400803ABE003D08803A3E02031D2B2E3C081C
:101C54004502031C2E2E2F2EF82D83120313071377
:101C6400C701C801672E0A168A1513260A128A1597
:101C7400831203135C08013A031D412E422E612E88
:101C84000713592E87160730BB007D30BA00BA0BF4
:101C9400492EBB0B492E8312031387120730BB0056
:101CA4007D30BA00BA0B542EBB0B542E592E83121E
:101CB4000313861B5E2E5F2E442E8610762E013073
:101CC400C7070318C80A0030C8074808803ABA0092
:101CD4005608803A3A02031D712E55084702031C28
:101CE400742E752E352E762E831203135C08013A5A
:101CF400031D7D2E7E2E802EE02FE02FC901CA0108
:101D0400982E0A168A152C260A128A158312031392
:101D14005C08013A031D8F2E902E922EA72EA72E1B
:101D24000130C9070318CA0A0030CA074A08803AB2
:101D3400BA005008803A3A02031DA22E4F08490205
:101D4400031CA52EA62E832EA72E0A168A11D9218E
:101D54000A128A15831203135C08013A031DB32E79
:101D6400B42ED32E0713CB2E87160730BB007D303D
:101D7400BA00BA0BBB2EBB0BBB2E83120313871204
:101D84000730BB007D30BA00BA0BC62EBB0BC62E83
:101D9400CB2E83120313861BD02ED12EB62E861083
:101DA400E02F0130BA003A0883160313C8078312E0
:101DB40003130717071683160313CA01F801F90161
:101DC400831203130915CB01CC01FD2E0A168A15C3
:101DD4002C260A128A15831203135C08013A031D88
:101DE400F42EF52EF72E0C2F0C2F0130CB070318F1
:101DF400CC0A0030CC074C08803ABA005008803A2C
:101E04003A02031D072F4F084B02031C0A2F0B2F06
:101E1400E82E0C2F831203135D08FF3EBA00FF3037
:101E240003180030BB003B08803A803C031D1E2F82
:101E34003A088316031351020318212F222F712FFE
:101E440083120313CD01CE01592F0A168A151326C6
:101E54000A128A15831203135C08013A031D332FF7
:101E6400342F532F07134B2F87160730BB007D30B9
:101E7400BA00BA0B3B2FBB0B3B2F83120313871201
:101E84000730BB007D30BA00BA0B462FBB0B462F80
:101E94004B2F83120313861B502F512F362F86107E
:101EA400682F0130CD070318CE0A0030CE074E0844
:101EB400803ABA005608803A3A02031D632F550847
:101EC4004D02031C662F672F272F682F01308312C2
:101ED4000313BA003A0883160313D107712F831230
:101EE40003130716D301D4015408803AFF0081304C
:101EF4007F02031D7F2F90305302031C822F832FF8
:101F0400852FC52FC52F0A168A1545260A128A154C
:101F1400831203135C08013A031D912F922FB12FF2
:101F24000713A92F87160730BB007D30BA00BA0B00
:101F3400992FBB0B992F8312031387120730BB0011
:101F44007D30BA00BA0BA42FBB0BA42FA92F831288
:101F54000313861BAE2FAF2F942F8610C52F01308D
:101F6400D3070318D40A0030D4075408803AFF007A
:101F740081307F02031DC02F90305302031CC32FF6
:101F8400C42F852FC52F831203135C08013A031D48
:101F9400CC2FCD2FCF2FE02FE02F0C300A168A1133
:101FA400B9230A128A15D62F831203135D088316E8
:101FB40003134802031CDF2FE02F7C2C831207132A
:101FC400F82F87160730BB007D30BA00BA0BE82F14
:101FD400BB0BE82F8312031387120730BB007D303D
:101FE400BA00BA0BF32FBB0BF32FF82F8312031392
:101FF400861BFD2FFE2FE32FFF2F080010308A00D1
:102004000408840A82070034013400340A3400349A
:1020140064340034E83403341034273443346834EB
:102024006F346E3420344D344F34443445342034CA
:102034006D34613469342034643461346F343A3437
:1020440000344B3465347434203474346834753457
:10205400633420346D346134693420347434683426
:102064006F34003444346F34203441346E342034BB
:1020740054346F34743420344E34673468346934DF
:1020840065347034003453344F3420344C34413488
:102094004E3420344D34413449343A3400345334CA
:1020A4006F3420344C3461346E3420344D34613414
:1020B40069343A340034443461342034733465343C
:1020C4007434203478346F346E34673400344334D9
:1020D4004834493445345534203444344134493443
:1020E4003A34003431342E344D346F34643465342E
:1020F4005F343134003432342E344D346F3464342C
:1021040065345F343234003453344F3420344C3427
:1021140055344F3449343A34003453346F34203412
:102124004C3475346F3469343A34003445345034A3
:102134002034543448344F343A34003453346F34F4
:1021440020344C3461346E343A34003444344F34E3
:102154002034453450343A3400342034203420348C
:102164002034203400344C3441344E3400344D3463
:102174004D34003455344D34003425346434003443
:042184002D340034C2
:10218A0083120313AB00DC282B0884000A168A1179
:10219A0000200A168A110A168A11B9230A168A1108
:1021AA00013083120313AA002A08AB07DC282B0884
:1021BA0084000A168A1100200A168A110038031DA3
:1021CA00E728E828C928E928080083160313051414
:1021DA0085140515851583120313851605120D300E
:1021EA00F400F40BF6288312031309140D30F400DB
:1021FA00F40BFD2800308312031385190130F40013
:10220A007408F50009100D30F400F40B0A29831242
:10221A00031309140D30F400F40B1129831203136C
:10222A000910750818290800F40110307402031CFB
:10223A001F29202922294F294F29740883120313A1
:10224A00A0002007A03E840083130008A100840A8E
:10225A000008A200013021062204031D352936296F
:10226A0043297408A63E840083170008A0002008AA
:10227A0083160313D70001305129512901308312E3
:10228A00A0002008F40710307402031C4D294E29BF
:10229A0022294F2900305129080083120313A6006E
:1022AA006829A70176294030A5002508A7007629C4
:1022BA001430A5002508A70076295430A500250862
:1022CA00A700762976292408003A03195629013AE3
:1022DA0003195829033A03195D29013A0319622996
:1022EA0076292608A5002508A70727088038A5000B
:1022FA002508F40000300A168A1124260A168A11C3
:10230A00872987290A168A11EA200A168A110038AB
:10231A00031D902991298729922908008312031302
:10232A002808270403199A299B29D129AB010314E8
:10233A00AB0DAB2901300310A70DA80DFF3E031DFD
:10234A00A0290130F5007508AB07AB29A81FAE29F3
:10235A00AF299F29B129B12928082A02031DB729C3
:10236A0027082902031CBA29BB29C2292708A9025E
:10237A002808031CAA03AA02C22901300310A80CC8
:10238A00A70CFF3E031DC3290130AB02031DCE2952
:10239A00CF29B129D129D1292A08A801A8072908B2
:1023AA00A701A707D8290800C03083120313AE007B
:1023BA005D30AF00AA01AB01AC01AD015D08A80018
:1023CA00A9012808A0002908A100C030A2005D3098
:1023DA00A3000A168A1143230A168A1183120313C9
:1023EA002108AF01AF072008AE01AE07B001B10165
:1023FA00142A87141A30A800A80B012A6400831231
:10240A00031387101A30A800A80B092A64000130A8
:10241A0083120313B0070318B10A0030B1072F085B
:10242A003102031D1A2A2E083002031C1D2A1E2AF5
:10243A00FE291F2A080083120313A501A6012108F9
:10244A0020040319292A2A2A682AA4010314A40D9C
:10245A003A2A01300310A00DA10DFF3E031D2F2AB9
:10246A000130F4007408A4073A2AA11F3D2A3E2A23
:10247A002E2A402A402A01300310A50DA60DFF3E40
:10248A00031D412A21082302031D4D2A2008220286
:10249A00031C502A512A592A2008A2022108031C87
:1024AA00A303A3022514592A01300310A10CA00C7E
:1024BA00FF3E031D5A2A0130A402031D652A662A1B
:1024CA00402A682A682A2608A101A1072508A0012E
:1024DA00A0076F2A080083120313A801A901A60105
:1024EA00A7017708A101A1077608A001A007143067
:1024FA00A2000030A3000A168A15D4270A168A11E8
:10250A00831203132008703EA80021080318013E15
:10251A00FE3EA900AA01AB01C42A0A168A1513268F
:10252A000A168A11831203135C08013A031D9E2AB4
:10253A009F2ABE2A0713B62A87160730A5007D30C0
:10254A00A400A40BA62AA50BA62A8312031387129A
:10255A000730A5007D30A400A40BB12AA50BB12A2F
:10256A00B62A83120313861BBB2ABC2AA12A861009
:10257A00D32A0130AA070318AB0A0030AB072B088D
:10258A00803AA4002908803A2402031DCE2A28088A
:10259A002A02031CD12AD22A922AD32A0800831299
:1025AA000313AF01B0010530B1000030B2000716C5
:1025BA00B301B401132B0A168A1545260A168A1185
:1025CA00831203135C08013A031DEC2AED2A0C2B33
:1025DA000713042B87160730AD007D30AC00AC0B17
:1025EA00F42AAD0BF42A8312031387120730AD00C5
:1025FA007D30AC00AC0BFF2AAD0BFF2A042B8312F3
:10260A000313861B092B0A2BEF2A86102C2B013069
:10261A00B3070318B40A0030B407132B3208AD000D
:10262A003108AC000330FF000310AC0DAD0DFF0BF9
:10263A00192B3408803AAE002D08803A2E02031D69
:10264A00282B2C083302031C2B2B2C2BE02A831259
:10265A00031307170A168A1170220A168A11013003
:10266A000A168A15AA270A168A1183120313071350
:10267A000A168A1170220A168A1108008312031395
:10268A00A501A11F492B4A2B532BA009A109A00A76
:10269A000319A10AA5010314A50D532BA31F562B39
:1026AA00572B612BA209A309A20A0319A30A013015
:1026BA00F4007408A506612BA601A70121082004CD
:1026CA000319682B692BA72BA4010314A40D792BDA
:1026DA0001300310A00DA10DFF3E031D6E2B01302A
:1026EA00F4007408A407792BA11F7C2B7D2B6D2B7A
:1026FA007F2B7F2B01300310A60DA70DFF3E031D74
:10270A00802B21082302031D8C2B20082202031C84
:10271A008F2B902B982B2008A2022108031CA303BD
:10272A00A3022614982B01300310A10CA00CFF3E23
:10273A00031D992B0130A402031DA42BA52B7F2B6B
:10274A00A72BA72B2508031DAB2BB12BA609A7097D
:10275A00A60A0319A70AB12B2708A101A10726086F
:10276A00A001A007B82B080083120313A9002F2C7D
:10277A00F4010314F40D00300A168A1124260A16ED
:10278A008A11C82BC82B0A168A11EA200A168A113E
:10279A000038031DD12BD22BC82B3F2C3F2C0230E3
:1027AA0083120313A8002808F40000300A168A11BD
:1027BA0024260A168A11E22BE22B0A168A11EA202B
:1027CA000A168A110038031DEB2BEC2BE22B3F2C47
:1027DA003F2C83120313A4010314A40D00300A161C
:1027EA008A1152210A168A113F2C103083120313C0
:1027FA00A8002808F40000300A168A1124260A16AE
:10280A008A11082C082C0A168A11EA200A168A113B
:10281A000038031D112C122C082C3F2C3F2C83123C
:10282A0003132908A8002808F40001300A168A119F
:10283A0024260A168A11222C222C0A168A11EA2028
:10284A000A168A110038031D2B2C2C2C222C3F2C03
:10285A003F2C3F2C831203132908083A0319FA2B39
:10286A00023A0319EE2B063A0319BD2B013A031952
:10287A00D42B142C08000130831603133A063B04A8
:10288A00031D482C492C4D2CF401F501DC2CDC2CC1
:10289A00013026062704031D532C542C5A2C0F30C2
:1028AA00F4000030F500DC2CDC2C01302006210479
:1028BA00031D602C612C672C0130F4000030F500F8
:1028CA00DC2CDC2C013022062304031D6D2C6E2C1B
:1028DA00742C0230F4000030F500DC2CDC2C0130C2
:1028EA0024062504031D7A2C7B2C812C0330F4004A
:1028FA000030F500DC2CDC2C013028062904031DED
:10290A00872C882C8E2C0430F4000030F500DC2C47
:10291A00DC2C01302A062B04031D942C952C9B2CAD
:10292A000530F4000030F500DC2CDC2C01302C06DC
:10293A002D04031DA12CA22CA82C0630F400003073
:10294A00F500DC2CDC2C01302E062F04031DAE2CE6
:10295A00AF2CB52C1030F4000030F500DC2CDC2C48
:10296A00013030063104031DBB2CBC2CC22C0730AD
:10297A00F4000030F500DC2CDC2C01303206330484
:10298A00031DC82CC92CCF2C0830F4000030F500E8
:10299A00DC2CDC2C013034063504031DD52CD62C56
:1029AA00DC2C0930F4000030F500DC2CDC2C0800AB
:1029BA00831603135208013A031DE42CE52CF72C65
:1029CA00400883120313A600A7012608AE002708B1
:1029DA00AF002F08A501A5072E08A401A4077D2D85
:1029EA007D2D7D2D831603135208023A031DFE2CFA
:1029FA00FF2C262D400883120313A600A7012608E0
:102A0A00A0002708A1000A30A2000030A3000A167D
:102A1A008A15D4270A168A118316031341088312CA
:102A2A0003132007AE000030031801302107AF005E
:102A3A002F08A501A5072E08A401A4077D2D7D2D29
:102A4A007D2D831603135208033A031D2D2D2E2DB7
:102A5A00792D400883120313A600A7012608A000B7
:102A6A002708A1006430A2000030A3000A168A15C4
:102A7A00D4270A168A11831203132008A8002108F2
:102A8A00A90083160313410883120313AA00AB019A
:102A9A002A08A0002B08A1000A30A2000030A300D7
:102AAA000A168A15D4270A168A11831203132008D4
:102ABA002807AC0021080318210A2907AD0083164C
:102ACA0003134208831203132C07AE0000300318C5
:102ADA0001302D07AF002F08A501A5072E08A40174
:102AEA00A4077D2D7D2D7D2DD2017D2D7D2D7D2D62
:102AFA00080083120313A801A9012908803AFF00DC
:102B0A0080307F02031D8B2D04302802031C8E2D7A
:102B1A008F2D912D232E232E831203132808DD3E99
:102B2A008400831300098800AA01AB012B08803AAC
:102B3A00FF0080307F02031DA42D04302A02031CEB
:102B4A00A72DA82DAA2D0D2E0D2E831203132A08A8
:102B5A00D93E8400831300080805031DB52DB62D40
:102B6A00E52D2808A00002300310A00DFF3E031D2A
:102B7A00B92D2A082007A1002107A03E84000008D9
:102B8A00A200840A0008A3002208013EA400230828
:102B9A000318013E003EA5002808A60002300310D3
:102BAA00A60DFF3E031DD42D2A082607A7002707D6
:102BBA00A03E840024088000840A25088000F92D9C
:102BCA002808A00002300310A00DFF3E031DE82DC7
:102BDA002A082007A1002107A03E840000308000B7
:102BEA00840A00308000F92D0130AA070318AB0AC5
:102BFA000030AB072B08803AFF0080307F02031DAC
:102C0A00082E04302A02031C0B2E0C2EAA2D0D2E80
:102C1A00013083120313A8070318A90A0030A90771
:102C2A002908803AFF0080307F02031D1E2E0430DF
:102C3A002802031C212E222E912D232E08008312F6
:102C4A000313A200831603130510851005118511BD
:102C5A008312031305122208031D342E362E05167D
:102C6A00362E0D30A000A00B382E831203138512C6
:102C7A000D30A000A00B3F2E831203130910740815
:102C8A00A0002008A300230E0139A000200C03187D
:102C9A004F2E532E831203130514562E8312031339
:102CAA000510230EA000200C0139A100210C0318E5
:102CBA005F2E632E831203138514662E8312031369
:102CCA008510230EA000A00C200C0139A100210CB4
:102CDA000318702E742E831203130515772E831290
:102CEA0003130511230D230D0139A000200C03182D
:102CFA007F2E832E831203138515862E83120313C8
:102D0A0085110D30A000A00B882E8312031309141D
:102D1A000D30A000A00B8F2E831203130910230875
:102D2A000139A000200C03189B2E9F2E8312031337
:102D3A000514A22E831203130510230C0139A000D7
:102D4A00200C0318A92EAD2E831203138514B02E5E
:102D5A00831203138510230CA000200C0139A10053
:102D6A00210C0318B92EBD2E831203130515C02E8C
:102D7A00831203130511230CA000A00C200C0139A7
:102D8A00A100210C0318CA2ECE2E83120313851517
:102D9A00D12E8312031385110D30A000A00BD32E60
:102DAA008312031309140D30A000A00BDA2E83122C
:102DBA00031309100800831603130910051285125C
:102DCA0005108510051185118312031309100512C8
:102DDA0085120230A6000430A500BA30A400A40B64
:102DEA00F42EA50BF42EA60BF42E640030308312B9
:102DFA000313A4002408F40000300A168A112426BA
:102E0A000A168A11823083120313A500DD30A4004A
:102E1A00A40B0D2FA50B0D2F122F30308312031385
:102E2A00A4002408F40000300A168A1124260A167F
:102E3A008A11823083120313A500DD30A400A40B8B
:102E4A00242FA50B242F292F323083120313A40019
:102E5A002408F40000300A168A1124260A168A1158
:102E6A00023083120313A6000430A500BA30A4006E
:102E7A00A40B3D2FA50B3D2FA60B3D2F640002305E
:102E8A0083120313A6000430A500BA30A400A40BD1
:102E9A004C2FA50B4C2FA60B4C2F6400023083122B
:102EAA000313A6000430A500BA30A400A40B5B2FBC
:102EBA00A50B5B2FA60B5B2F6400642F642F0A16E9
:102ECA008A11EA200A168A110038031D6D2F6E2F07
:102EDA00642F6F2F283083120313A4002408F400F0
:102EEA0000300A168A1124260A168A117D2F7D2F90
:102EFA000A168A11EA200A168A110038031D862F3B
:102F0A00872F7D2F882F083083120313A4002408EB
:102F1A00F40000300A168A1124260A168A11962FFE
:102F2A00962F0A168A11EA200A168A110038031DFA
:102F3A009F2FA02F962FA12F0C3083120313A400CA
:102F4A002408F40000300A168A1124260A168A1167
:102F5A00AF2FAF2F0A168A11EA200A168A110038F3
:102F6A00031DB82FB92FAF2FBA2FF4010314F40D94
:102F7A0000300A168A1124260A168A11C52FC52F6F
:102F8A000A168A11EA200A168A110038031DCE2F62
:102F9A00CF2FC52FD02F043083120313A400240887
:102FAA00F40000300A168A1124260A168A11DE2F26
:102FBA00DE2F0A168A11EA200A168A110038031D22
:102FCA00E72FE82FDE2FE92FF4010314F40D003068
:102FDA000A168A1124260A168A11F42FF42F0A16C1
:102FEA008A11EA200A168A110038031DFD2FFE2FC6
:062FFA00F42FFF2F080078
:103B340064008001840A04060319003404069B2DE2
:103B440083120313AA002A080A168A11B9230A1633
:103B54008A15080001340234033441340434053432
:103B64000634423407340834093443342A340034E4
:103B7400453430340130831603133A063B04031DE5
:103B8400C42DC52DC92D0130CC2DCC2DCC2D00300C
:103B9400CC2DCC2D080001308316031338063904CC
:103BA400031DD52DD62DDA2D0130DD2DDD2DDD2D96
:103BB4000030DD2DDD2D08000130831603133E0691
:103BC4003F04031DE62DE72DEB2D0130EE2DEE2DE8
:103BD400EE2D0030EE2DEE2D080001308316031378
:103BE4003C063D04031DF72DF82DFC2D0130FF2D5F
:103BF400FF2DFF2D0030FF2DFF2D08007E088A00C9
:103C04007F0882000A168A1500260A168A15800083
:103C1400840A04087D0603190034FF0A0319FE0A06
:103C2400042E8312031387160830F500C930F400FC
:103C3400F40B1A2EF50B1A2E1F2E83120313871260
:103C44000830F500C930F400F40B262EF50B262EAF
:103C54002B2E08008312031389140430F500E4307A
:103C6400F400F40B332EF50B332E6400831203138C
:103C740089100430F500E430F400F40B3F2EF50B0A
:103C84003F2E640008008312031387150330F500E8
:103C94009730F400F40B4C2EF50B4C2E512E83125E
:103CA400031387110330F5009730F400F40B582EFA
:103CB400F50B582E5D2E08000F3083160313880071
:103CC400FF308312031388008316031387018312C2
:103CD400031387018316031389100911E130860049
:103CE400E1308312031386008910091108000130A2
:103CF40083160313260627040319812E822E8C2E85
:103D0400003027020A3003192602031C8A2E8B2E48
:103D1400902E8C2E0130932E932E932E0030932EC2
:103D2400932E080001308316031334063504031957
:103D34009C2E9D2EA72E003035020A300319340222
:103D4400031CA52EA62EAB2EA72E0130AE2EAE2E12
:103D5400AE2E0030AE2EAE2E0800013083160313B3
:103D6400360637040319B72EB82EC22E0030370298
:103D74000A3003193602031CC02EC12EC62EC22ED1
:103D84000130C92EC92EC92E0030C92EC92E0800F3
:103D9400013083160313300631040319D22ED32EB7
:103DA400DD2E003031020A3003193002031CDB2EF1
:103DB400DC2EE12EDD2E0130E42EE42EE42E003044
:103DC400E42EE42E08000130831603133206330474
:103DD4000319ED2EEE2EF82E003033020A300319AB
:103DE4003202031CF62EF72EFC2EF82E0130FF2E85
:103DF400FF2EFF2E0030FF2EFF2E08000130831609
:103E04000313240625040319082F092F132F003048
:103E140025020A3003192402031C112F122F172F15
:103E2400132F01301A2F1A2F1A2F00301A2F1A2F7E
:103E34000800013083160313200621040319232FDD
:103E4400242F2E2F003021020A3003192002031CD4
:103E54002C2F2D2F322F2E2F0130352F352F352F8C
:103E64000030352F352F08000130831603132A063E
:103E74002B0403193E2F3F2F492F00302B020A3009
:103E840003192A02031C472F482F4D2F492F0130B5
:103E9400502F502F502F0030502F502F080001303A
:103EA40083160313220623040319592F5A2F642F50
:103EB400003023020A3003192202031C622F632FED
:103EC400682F642F01306B2F6B2F6B2F00306B2FFB
:103ED4006B2F0800013083160313260627040319E9
:103EE400742F752F7F2F003027020A300319260202
:103EF400031C7D2F7E2F832F7F2F0130862F862F4B
:103F0400862F0030862F862F08000B1E8A2F8B2FBA
:103F14009E2F8B1C8E2F8F2F9E2F8B10DC01031452
:103F2400DC0D83160313D301D401CD01C601C701EF
:103F3400F801F901D1019E2F73088312FF00720862
:103F44008A0071088400700E8300FE0E7E0E090044
:103F540083120313A300A401A501C72F0230831207
:103F64000313A2000430A100BA30A000A00BB82FA4
:103F7400A10BB82FA20BB82F6400013083120313D6
:103F8400A4070318A50A0030A5072508803A803C39
:103F9400031DCE2F240823020318D12FD22FB02FB4
:103FA400D32F0800F401F501D72F83120313201C2B
:103FB400DC2FDD2FE32F2208F4070318F50A23086A
:103FC400F50701300310A20DA30DFF3E031DE42FDE
:103FD40001300310A10CA00CFF3E031DEB2F2108A0
:103FE4002004031DF62FF72FD72FF82F7508A101F2
:0C3FF400A1077408A001A007FF2F08001F
:04400E00E220FF3F6E
:00000001FF
